{
  "contractName": "CryptoArtTrade",
  "abi": [
    {
      "constant": false,
      "inputs": [
        {
          "name": "_cryptoArtId",
          "type": "uint256"
        },
        {
          "name": "_artPrice",
          "type": "uint256"
        }
      ],
      "name": "setCryptoArtPrice",
      "outputs": [],
      "payable": false,
      "stateMutability": "nonpayable",
      "type": "function"
    },
    {
      "constant": true,
      "inputs": [
        {
          "name": "",
          "type": "uint256"
        }
      ],
      "name": "cryptoartPrices",
      "outputs": [
        {
          "name": "",
          "type": "uint256"
        }
      ],
      "payable": false,
      "stateMutability": "view",
      "type": "function"
    },
    {
      "constant": false,
      "inputs": [
        {
          "name": "name",
          "type": "string"
        }
      ],
      "name": "creatNewCrptoArt",
      "outputs": [],
      "payable": false,
      "stateMutability": "nonpayable",
      "type": "function"
    },
    {
      "constant": true,
      "inputs": [
        {
          "name": "_cryptoArtId",
          "type": "uint256"
        }
      ],
      "name": "getCryptoArtPrice",
      "outputs": [
        {
          "name": "",
          "type": "uint256"
        }
      ],
      "payable": false,
      "stateMutability": "view",
      "type": "function"
    },
    {
      "constant": true,
      "inputs": [],
      "name": "owner",
      "outputs": [
        {
          "name": "",
          "type": "address"
        }
      ],
      "payable": false,
      "stateMutability": "view",
      "type": "function"
    },
    {
      "constant": true,
      "inputs": [
        {
          "name": "",
          "type": "uint256"
        }
      ],
      "name": "artToOwner",
      "outputs": [
        {
          "name": "",
          "type": "address"
        }
      ],
      "payable": false,
      "stateMutability": "view",
      "type": "function"
    },
    {
      "constant": false,
      "inputs": [
        {
          "name": "_cryptoArtId",
          "type": "uint256"
        }
      ],
      "name": "buyCryptoArt",
      "outputs": [],
      "payable": true,
      "stateMutability": "payable",
      "type": "function"
    },
    {
      "constant": true,
      "inputs": [
        {
          "name": "",
          "type": "uint256"
        }
      ],
      "name": "arts",
      "outputs": [
        {
          "name": "name",
          "type": "string"
        },
        {
          "name": "uuid",
          "type": "uint256"
        },
        {
          "name": "imageUrl",
          "type": "string"
        }
      ],
      "payable": false,
      "stateMutability": "view",
      "type": "function"
    },
    {
      "constant": false,
      "inputs": [
        {
          "name": "newOwner",
          "type": "address"
        }
      ],
      "name": "transferOwnership",
      "outputs": [],
      "payable": false,
      "stateMutability": "nonpayable",
      "type": "function"
    },
    {
      "constant": true,
      "inputs": [
        {
          "name": "",
          "type": "address"
        }
      ],
      "name": "ownArtCount",
      "outputs": [
        {
          "name": "",
          "type": "uint256"
        }
      ],
      "payable": false,
      "stateMutability": "view",
      "type": "function"
    },
    {
      "anonymous": false,
      "inputs": [
        {
          "indexed": false,
          "name": "_artUuid",
          "type": "uint256"
        },
        {
          "indexed": false,
          "name": "_name",
          "type": "string"
        },
        {
          "indexed": false,
          "name": "artId",
          "type": "uint256"
        },
        {
          "indexed": false,
          "name": "_sender",
          "type": "address"
        }
      ],
      "name": "NewArtCreated",
      "type": "event"
    }
  ],
  "bytecode": "0x60606040526010600155600154600a0a6002556040805190810160405280600c81526020017f687474703a2f2f696d61676500000000000000000000000000000000000000008152506003908051906020019061005d9291906100a3565b50336000806101000a81548173ffffffffffffffffffffffffffffffffffffffff021916908373ffffffffffffffffffffffffffffffffffffffff160217905550610148565b828054600181600116156101000203166002900490600052602060002090601f016020900481019282601f106100e457805160ff1916838001178555610112565b82800160010185558215610112579182015b828111156101115782518255916020019190600101906100f6565b5b50905061011f9190610123565b5090565b61014591905b80821115610141576000816000905550600101610129565b5090565b90565b610bfe806101576000396000f3006060604052600436106100a4576000357c0100000000000000000000000000000000000000000000000000000000900463ffffffff1680631b98c00f146100a957806333cee13c146100d5578063426d0b701461010c578063796e458a146101695780638da5cb5b146101a0578063b10cb87a146101f5578063dcfc2e0514610258578063e57a104a14610270578063f2fde38b146103b9578063f87e0767146103f2575b600080fd5b34156100b457600080fd5b6100d3600480803590602001909190803590602001909190505061043f565b005b34156100e057600080fd5b6100f6600480803590602001909190505061045b565b6040518082815260200191505060405180910390f35b341561011757600080fd5b610167600480803590602001908201803590602001908080601f01602080910402602001604051908101604052809392919081815260200183838082843782019150505050505091905050610473565b005b341561017457600080fd5b61018a600480803590602001909190505061048e565b6040518082815260200191505060405180910390f35b34156101ab57600080fd5b6101b36104ab565b604051808273ffffffffffffffffffffffffffffffffffffffff1673ffffffffffffffffffffffffffffffffffffffff16815260200191505060405180910390f35b341561020057600080fd5b61021660048080359060200190919050506104d0565b604051808273ffffffffffffffffffffffffffffffffffffffff1673ffffffffffffffffffffffffffffffffffffffff16815260200191505060405180910390f35b61026e6004808035906020019091905050610503565b005b341561027b57600080fd5b6102916004808035906020019091905050610537565b6040518080602001848152602001806020018381038352868181546001816001161561010002031660029004815260200191508054600181600116156101000203166002900480156103245780601f106102f957610100808354040283529160200191610324565b820191906000526020600020905b81548152906001019060200180831161030757829003601f168201915b50508381038252848181546001816001161561010002031660029004815260200191508054600181600116156101000203166002900480156103a75780601f1061037c576101008083540402835291602001916103a7565b820191906000526020600020905b81548152906001019060200180831161038a57829003601f168201915b50509550505050505060405180910390f35b34156103c457600080fd5b6103f0600480803573ffffffffffffffffffffffffffffffffffffffff1690602001909190505061056e565b005b34156103fd57600080fd5b610429600480803573ffffffffffffffffffffffffffffffffffffffff1690602001909190505061063e565b6040518082815260200191505060405180910390f35b8060076000848152602001908152602001600020819055505050565b60076020528060005260406000206000915090505481565b600061047e82610656565b905061048a82826106d8565b5050565b600060076000838152602001908152602001600020549050919050565b6000809054906101000a900473ffffffffffffffffffffffffffffffffffffffff1681565b60056020528060005260406000206000915054906101000a900473ffffffffffffffffffffffffffffffffffffffff1681565b600060076000838152602001908152602001600020549050803414151561052957600080fd5b6105338233610a16565b5050565b60048181548110151561054657fe5b9060005260206000209060030201600091509050806000019080600101549080600201905083565b6000809054906101000a900473ffffffffffffffffffffffffffffffffffffffff1673ffffffffffffffffffffffffffffffffffffffff163373ffffffffffffffffffffffffffffffffffffffff16141561063b57600073ffffffffffffffffffffffffffffffffffffffff168173ffffffffffffffffffffffffffffffffffffffff1614151561063a57806000806101000a81548173ffffffffffffffffffffffffffffffffffffffff021916908373ffffffffffffffffffffffffffffffffffffffff1602179055505b5b50565b60066020528060005260406000206000915090505481565b600080826040518082805190602001908083835b60208310151561068f578051825260208201915060208101905060208303925061066a565b6001836020036101000a0380198251168184511680821785525050505050509050019150506040518091039020600190049050600254818115156106cf57fe5b06915050919050565b6000600480548060010182816106ee9190610a6c565b9160005260206000209060030201600060606040519081016040528087815260200186815260200160038054600181600116156101000203166002900480601f0160208091040260200160405190810160405280929190818152602001828054600181600116156101000203166002900480156107ac5780601f10610781576101008083540402835291602001916107ac565b820191906000526020600020905b81548152906001019060200180831161078f57829003601f168201915b5050505050815250909190915060008201518160000190805190602001906107d5929190610a9e565b506020820151816001015560408201518160020190805190602001906107fc929190610a9e565b5050509050336005600083815260200190815260200160002060006101000a81548173ffffffffffffffffffffffffffffffffffffffff021916908373ffffffffffffffffffffffffffffffffffffffff1602179055506000600660003373ffffffffffffffffffffffffffffffffffffffff1673ffffffffffffffffffffffffffffffffffffffff168152602001908152602001600020541415156108e2576000600660003373ffffffffffffffffffffffffffffffffffffffff1673ffffffffffffffffffffffffffffffffffffffff168152602001908152602001600020819055505b600660003373ffffffffffffffffffffffffffffffffffffffff1673ffffffffffffffffffffffffffffffffffffffff168152602001908152602001600020600081548092919060010191905055507f582381568b1cdf711182dbfcc771f27c20d7c3db604bc556e4923c5af710375f8284833360405180858152602001806020018481526020018373ffffffffffffffffffffffffffffffffffffffff1673ffffffffffffffffffffffffffffffffffffffff168152602001828103825285818151815260200191508051906020019080838360005b838110156109d45780820151818401526020810190506109b9565b50505050905090810190601f168015610a015780820380516001836020036101000a031916815260200191505b509550505050505060405180910390a1505050565b806005600084815260200190815260200160002060006101000a81548173ffffffffffffffffffffffffffffffffffffffff021916908373ffffffffffffffffffffffffffffffffffffffff1602179055505050565b815481835581811511610a9957600302816003028360005260206000209182019101610a989190610b1e565b5b505050565b828054600181600116156101000203166002900490600052602060002090601f016020900481019282601f10610adf57805160ff1916838001178555610b0d565b82800160010185558215610b0d579182015b82811115610b0c578251825591602001919060010190610af1565b5b509050610b1a9190610b65565b5090565b610b6291905b80821115610b5e5760008082016000610b3d9190610b8a565b6001820160009055600282016000610b559190610b8a565b50600301610b24565b5090565b90565b610b8791905b80821115610b83576000816000905550600101610b6b565b5090565b90565b50805460018160011615610100020316600290046000825580601f10610bb05750610bcf565b601f016020900490600052602060002090810190610bce9190610b65565b5b505600a165627a7a72305820f013834b72eb5c551ab2995fee1ce13575dd46b73b3c298957cb152ad0d53ef90029",
  "source": "pragma solidity ^0.4.17;\n\nimport './CrytoArtFactory.sol';\n\ncontract CryptoArtTrade is CrytoArtFactory {\n    mapping (uint=>uint) public cryptoartPrices;\n\n    function setCryptoArtPrice(uint _cryptoArtId, uint _artPrice) public {\n        cryptoartPrices[_cryptoArtId] = _artPrice;\n    }\n\n    function buyCryptoArt(uint _cryptoArtId) external payable {\n        uint price = cryptoartPrices[_cryptoArtId];\n        require(msg.value == price);\n        _setCryptoArtOwner(_cryptoArtId, msg.sender);\n    }\n\n    function _setCryptoArtOwner(uint _cryptoartId, address newOwner ) internal {\n        artToOwner[_cryptoartId] = newOwner;\n    }\n\n    function getCryptoArtPrice(uint _cryptoArtId) public view returns (uint ) {\n        return cryptoartPrices[_cryptoArtId];\n    }\n}",
  "sourcePath": "/Users/jugba/side-projects/crypto-art/contracts/CryptoArtTrade.sol",
  "compiler": {
    "name": "solc",
    "version": "0.4.18+commit.9cf6e910.Emscripten.clang"
  },
  "schemaVersion": "1.0.1",
  "updatedAt": "2018-02-11T00:29:18.138Z"
}