{
  "contractName": "CryptoArtTrade",
  "abi": [
    {
      "constant": false,
      "inputs": [
        {
          "name": "_cryptoArtId",
          "type": "uint256"
        },
        {
          "name": "_artPrice",
          "type": "uint256"
        }
      ],
      "name": "setCryptoArtPrice",
      "outputs": [],
      "payable": false,
      "stateMutability": "nonpayable",
      "type": "function"
    },
    {
      "constant": false,
      "inputs": [
        {
          "name": "name",
          "type": "string"
        }
      ],
      "name": "creatNewCrptoArt",
      "outputs": [],
      "payable": false,
      "stateMutability": "nonpayable",
      "type": "function"
    },
    {
      "constant": true,
      "inputs": [],
      "name": "owner",
      "outputs": [
        {
          "name": "",
          "type": "address"
        }
      ],
      "payable": false,
      "stateMutability": "view",
      "type": "function"
    },
    {
      "constant": true,
      "inputs": [
        {
          "name": "",
          "type": "uint256"
        }
      ],
      "name": "artToOwner",
      "outputs": [
        {
          "name": "",
          "type": "address"
        }
      ],
      "payable": false,
      "stateMutability": "view",
      "type": "function"
    },
    {
      "constant": false,
      "inputs": [
        {
          "name": "_cryptoArtId",
          "type": "uint256"
        }
      ],
      "name": "buyCryptoArt",
      "outputs": [],
      "payable": true,
      "stateMutability": "payable",
      "type": "function"
    },
    {
      "constant": true,
      "inputs": [
        {
          "name": "",
          "type": "uint256"
        }
      ],
      "name": "arts",
      "outputs": [
        {
          "name": "name",
          "type": "string"
        },
        {
          "name": "uuid",
          "type": "uint256"
        },
        {
          "name": "imageUrl",
          "type": "string"
        }
      ],
      "payable": false,
      "stateMutability": "view",
      "type": "function"
    },
    {
      "constant": false,
      "inputs": [
        {
          "name": "newOwner",
          "type": "address"
        }
      ],
      "name": "transferOwnership",
      "outputs": [],
      "payable": false,
      "stateMutability": "nonpayable",
      "type": "function"
    },
    {
      "constant": true,
      "inputs": [
        {
          "name": "",
          "type": "address"
        }
      ],
      "name": "ownArtCount",
      "outputs": [
        {
          "name": "",
          "type": "uint256"
        }
      ],
      "payable": false,
      "stateMutability": "view",
      "type": "function"
    },
    {
      "anonymous": false,
      "inputs": [
        {
          "indexed": false,
          "name": "_artUuid",
          "type": "uint256"
        },
        {
          "indexed": false,
          "name": "_name",
          "type": "string"
        },
        {
          "indexed": false,
          "name": "artId",
          "type": "uint256"
        },
        {
          "indexed": false,
          "name": "_sender",
          "type": "address"
        }
      ],
      "name": "NewArtCreated",
      "type": "event"
    }
  ],
  "bytecode": "0x60606040526010600155600154600a0a6002556040805190810160405280600c81526020017f687474703a2f2f696d61676500000000000000000000000000000000000000008152506003908051906020019061005d9291906100a3565b50336000806101000a81548173ffffffffffffffffffffffffffffffffffffffff021916908373ffffffffffffffffffffffffffffffffffffffff160217905550610148565b828054600181600116156101000203166002900490600052602060002090601f016020900481019282601f106100e457805160ff1916838001178555610112565b82800160010185558215610112579182015b828111156101115782518255916020019190600101906100f6565b5b50905061011f9190610123565b5090565b61014591905b80821115610141576000816000905550600101610129565b5090565b90565b610b9b806101576000396000f30060606040526004361061008e576000357c0100000000000000000000000000000000000000000000000000000000900463ffffffff1680631b98c00f14610093578063426d0b70146100bf5780638da5cb5b1461011c578063b10cb87a14610171578063dcfc2e05146101d4578063e57a104a146101ec578063f2fde38b14610335578063f87e07671461036e575b600080fd5b341561009e57600080fd5b6100bd60048080359060200190919080359060200190919050506103bb565b005b34156100ca57600080fd5b61011a600480803590602001908201803590602001908080601f0160208091040260200160405190810160405280939291908181526020018383808284378201915050505050509190505061042d565b005b341561012757600080fd5b61012f610448565b604051808273ffffffffffffffffffffffffffffffffffffffff1673ffffffffffffffffffffffffffffffffffffffff16815260200191505060405180910390f35b341561017c57600080fd5b610192600480803590602001909190505061046d565b604051808273ffffffffffffffffffffffffffffffffffffffff1673ffffffffffffffffffffffffffffffffffffffff16815260200191505060405180910390f35b6101ea60048080359060200190919050506104a0565b005b34156101f757600080fd5b61020d60048080359060200190919050506104d4565b6040518080602001848152602001806020018381038352868181546001816001161561010002031660029004815260200191508054600181600116156101000203166002900480156102a05780601f10610275576101008083540402835291602001916102a0565b820191906000526020600020905b81548152906001019060200180831161028357829003601f168201915b50508381038252848181546001816001161561010002031660029004815260200191508054600181600116156101000203166002900480156103235780601f106102f857610100808354040283529160200191610323565b820191906000526020600020905b81548152906001019060200180831161030657829003601f168201915b50509550505050505060405180910390f35b341561034057600080fd5b61036c600480803573ffffffffffffffffffffffffffffffffffffffff1690602001909190505061050b565b005b341561037957600080fd5b6103a5600480803573ffffffffffffffffffffffffffffffffffffffff169060200190919050506105db565b6040518082815260200191505060405180910390f35b6000809054906101000a900473ffffffffffffffffffffffffffffffffffffffff1673ffffffffffffffffffffffffffffffffffffffff163373ffffffffffffffffffffffffffffffffffffffff161415610429578060076000848152602001908152602001600020819055505b5050565b6000610438826105f3565b90506104448282610675565b5050565b6000809054906101000a900473ffffffffffffffffffffffffffffffffffffffff1681565b60056020528060005260406000206000915054906101000a900473ffffffffffffffffffffffffffffffffffffffff1681565b60006007600083815260200190815260200160002054905080341415156104c657600080fd5b6104d082336109b3565b5050565b6004818154811015156104e357fe5b9060005260206000209060030201600091509050806000019080600101549080600201905083565b6000809054906101000a900473ffffffffffffffffffffffffffffffffffffffff1673ffffffffffffffffffffffffffffffffffffffff163373ffffffffffffffffffffffffffffffffffffffff1614156105d857600073ffffffffffffffffffffffffffffffffffffffff168173ffffffffffffffffffffffffffffffffffffffff161415156105d757806000806101000a81548173ffffffffffffffffffffffffffffffffffffffff021916908373ffffffffffffffffffffffffffffffffffffffff1602179055505b5b50565b60066020528060005260406000206000915090505481565b600080826040518082805190602001908083835b60208310151561062c5780518252602082019150602081019050602083039250610607565b6001836020036101000a03801982511681845116808217855250505050505090500191505060405180910390206001900490506002548181151561066c57fe5b06915050919050565b60006004805480600101828161068b9190610a09565b9160005260206000209060030201600060606040519081016040528087815260200186815260200160038054600181600116156101000203166002900480601f0160208091040260200160405190810160405280929190818152602001828054600181600116156101000203166002900480156107495780601f1061071e57610100808354040283529160200191610749565b820191906000526020600020905b81548152906001019060200180831161072c57829003601f168201915b505050505081525090919091506000820151816000019080519060200190610772929190610a3b565b50602082015181600101556040820151816002019080519060200190610799929190610a3b565b5050509050336005600083815260200190815260200160002060006101000a81548173ffffffffffffffffffffffffffffffffffffffff021916908373ffffffffffffffffffffffffffffffffffffffff1602179055506000600660003373ffffffffffffffffffffffffffffffffffffffff1673ffffffffffffffffffffffffffffffffffffffff1681526020019081526020016000205414151561087f576000600660003373ffffffffffffffffffffffffffffffffffffffff1673ffffffffffffffffffffffffffffffffffffffff168152602001908152602001600020819055505b600660003373ffffffffffffffffffffffffffffffffffffffff1673ffffffffffffffffffffffffffffffffffffffff168152602001908152602001600020600081548092919060010191905055507f582381568b1cdf711182dbfcc771f27c20d7c3db604bc556e4923c5af710375f8284833360405180858152602001806020018481526020018373ffffffffffffffffffffffffffffffffffffffff1673ffffffffffffffffffffffffffffffffffffffff168152602001828103825285818151815260200191508051906020019080838360005b83811015610971578082015181840152602081019050610956565b50505050905090810190601f16801561099e5780820380516001836020036101000a031916815260200191505b509550505050505060405180910390a1505050565b806005600084815260200190815260200160002060006101000a81548173ffffffffffffffffffffffffffffffffffffffff021916908373ffffffffffffffffffffffffffffffffffffffff1602179055505050565b815481835581811511610a3657600302816003028360005260206000209182019101610a359190610abb565b5b505050565b828054600181600116156101000203166002900490600052602060002090601f016020900481019282601f10610a7c57805160ff1916838001178555610aaa565b82800160010185558215610aaa579182015b82811115610aa9578251825591602001919060010190610a8e565b5b509050610ab79190610b02565b5090565b610aff91905b80821115610afb5760008082016000610ada9190610b27565b6001820160009055600282016000610af29190610b27565b50600301610ac1565b5090565b90565b610b2491905b80821115610b20576000816000905550600101610b08565b5090565b90565b50805460018160011615610100020316600290046000825580601f10610b4d5750610b6c565b601f016020900490600052602060002090810190610b6b9190610b02565b5b505600a165627a7a7230582048cb8861ec4ac0906a4fa9af76f40a40d183b50213b537c57a612d4513c7124d0029",
  "source": "pragma solidity ^0.4.17;\n\nimport './CrytoArtFactory.sol';\n\ncontract CryptoArtTrade is CrytoArtFactory {\n    mapping (uint=>uint) cryptoartPrices;\n\n    function setCryptoArtPrice(uint _cryptoArtId, uint _artPrice) external onlyOwner {\n        cryptoartPrices[_cryptoArtId] = _artPrice;\n    }\n\n    function buyCryptoArt(uint _cryptoArtId) external payable {\n        uint price = cryptoartPrices[_cryptoArtId];\n        require(msg.value == price);\n        _setCryptoArtOwner(_cryptoArtId, msg.sender);\n    }\n\n    function _setCryptoArtOwner(uint _cryptoartId, address newOwner ) internal {\n        artToOwner[_cryptoartId] = newOwner;\n    }\n}",
  "sourcePath": "/Users/jugba/side-projects/crypto-art/contracts/CryptoArtTrade.sol",
  "compiler": {
    "name": "solc",
    "version": "0.4.18+commit.9cf6e910.Emscripten.clang"
  },
  "schemaVersion": "1.0.1",
  "updatedAt": "2018-02-10T21:53:48.166Z"
}