{
  "contractName": "CrytoArtFactory",
  "abi": [
    {
      "constant": false,
      "inputs": [
        {
          "name": "name",
          "type": "string"
        }
      ],
      "name": "creatNewCrptoArt",
      "outputs": [],
      "payable": false,
      "stateMutability": "nonpayable",
      "type": "function"
    },
    {
      "constant": true,
      "inputs": [],
      "name": "owner",
      "outputs": [
        {
          "name": "",
          "type": "address"
        }
      ],
      "payable": false,
      "stateMutability": "view",
      "type": "function"
    },
    {
      "constant": true,
      "inputs": [
        {
          "name": "",
          "type": "uint256"
        }
      ],
      "name": "artToOwner",
      "outputs": [
        {
          "name": "",
          "type": "address"
        }
      ],
      "payable": false,
      "stateMutability": "view",
      "type": "function"
    },
    {
      "constant": true,
      "inputs": [
        {
          "name": "",
          "type": "uint256"
        }
      ],
      "name": "arts",
      "outputs": [
        {
          "name": "name",
          "type": "string"
        },
        {
          "name": "uuid",
          "type": "uint256"
        },
        {
          "name": "imageUrl",
          "type": "string"
        }
      ],
      "payable": false,
      "stateMutability": "view",
      "type": "function"
    },
    {
      "constant": false,
      "inputs": [
        {
          "name": "newOwner",
          "type": "address"
        }
      ],
      "name": "transferOwnership",
      "outputs": [],
      "payable": false,
      "stateMutability": "nonpayable",
      "type": "function"
    },
    {
      "constant": true,
      "inputs": [
        {
          "name": "",
          "type": "address"
        }
      ],
      "name": "ownArtCount",
      "outputs": [
        {
          "name": "",
          "type": "uint256"
        }
      ],
      "payable": false,
      "stateMutability": "view",
      "type": "function"
    },
    {
      "anonymous": false,
      "inputs": [
        {
          "indexed": false,
          "name": "_artUuid",
          "type": "uint256"
        },
        {
          "indexed": false,
          "name": "_name",
          "type": "string"
        },
        {
          "indexed": false,
          "name": "artId",
          "type": "uint256"
        }
      ],
      "name": "NewArtCreated",
      "type": "event"
    }
  ],
  "bytecode": "0x60606040526010600155600154600a0a6002556040805190810160405280600c81526020017f687474703a2f2f696d61676500000000000000000000000000000000000000008152506003908051906020019061005d9291906100a3565b50336000806101000a81548173ffffffffffffffffffffffffffffffffffffffff021916908373ffffffffffffffffffffffffffffffffffffffff160217905550610148565b828054600181600116156101000203166002900490600052602060002090601f016020900481019282601f106100e457805160ff1916838001178555610112565b82800160010185558215610112579182015b828111156101115782518255916020019190600101906100f6565b5b50905061011f9190610123565b5090565b61014591905b80821115610141576000816000905550600101610129565b5090565b90565b610982806101576000396000f300606060405260043610610078576000357c0100000000000000000000000000000000000000000000000000000000900463ffffffff168063426d0b701461007d5780638da5cb5b146100da578063b10cb87a1461012f578063e57a104a14610192578063f2fde38b146102db578063f87e076714610314575b600080fd5b341561008857600080fd5b6100d8600480803590602001908201803590602001908080601f01602080910402602001604051908101604052809392919081815260200183838082843782019150505050505091905050610361565b005b34156100e557600080fd5b6100ed61037c565b604051808273ffffffffffffffffffffffffffffffffffffffff1673ffffffffffffffffffffffffffffffffffffffff16815260200191505060405180910390f35b341561013a57600080fd5b61015060048080359060200190919050506103a1565b604051808273ffffffffffffffffffffffffffffffffffffffff1673ffffffffffffffffffffffffffffffffffffffff16815260200191505060405180910390f35b341561019d57600080fd5b6101b360048080359060200190919050506103d4565b6040518080602001848152602001806020018381038352868181546001816001161561010002031660029004815260200191508054600181600116156101000203166002900480156102465780601f1061021b57610100808354040283529160200191610246565b820191906000526020600020905b81548152906001019060200180831161022957829003601f168201915b50508381038252848181546001816001161561010002031660029004815260200191508054600181600116156101000203166002900480156102c95780601f1061029e576101008083540402835291602001916102c9565b820191906000526020600020905b8154815290600101906020018083116102ac57829003601f168201915b50509550505050505060405180910390f35b34156102e657600080fd5b610312600480803573ffffffffffffffffffffffffffffffffffffffff1690602001909190505061040b565b005b341561031f57600080fd5b61034b600480803573ffffffffffffffffffffffffffffffffffffffff169060200190919050506104db565b6040518082815260200191505060405180910390f35b600061036c826104f3565b90506103788282610575565b5050565b6000809054906101000a900473ffffffffffffffffffffffffffffffffffffffff1681565b60056020528060005260406000206000915054906101000a900473ffffffffffffffffffffffffffffffffffffffff1681565b6004818154811015156103e357fe5b9060005260206000209060030201600091509050806000019080600101549080600201905083565b6000809054906101000a900473ffffffffffffffffffffffffffffffffffffffff1673ffffffffffffffffffffffffffffffffffffffff163373ffffffffffffffffffffffffffffffffffffffff1614156104d857600073ffffffffffffffffffffffffffffffffffffffff168173ffffffffffffffffffffffffffffffffffffffff161415156104d757806000806101000a81548173ffffffffffffffffffffffffffffffffffffffff021916908373ffffffffffffffffffffffffffffffffffffffff1602179055505b5b50565b60066020528060005260406000206000915090505481565b600080826040518082805190602001908083835b60208310151561052c5780518252602082019150602081019050602083039250610507565b6001836020036101000a03801982511681845116808217855250505050505090500191505060405180910390206001900490506002548181151561056c57fe5b06915050919050565b60006004805480600101828161058b91906107f0565b9160005260206000209060030201600060606040519081016040528087815260200186815260200160038054600181600116156101000203166002900480601f0160208091040260200160405190810160405280929190818152602001828054600181600116156101000203166002900480156106495780601f1061061e57610100808354040283529160200191610649565b820191906000526020600020905b81548152906001019060200180831161062c57829003601f168201915b505050505081525090919091506000820151816000019080519060200190610672929190610822565b50602082015181600101556040820151816002019080519060200190610699929190610822565b5050509050336005600083815260200190815260200160002060006101000a81548173ffffffffffffffffffffffffffffffffffffffff021916908373ffffffffffffffffffffffffffffffffffffffff160217905550600660003373ffffffffffffffffffffffffffffffffffffffff1673ffffffffffffffffffffffffffffffffffffffff168152602001908152602001600020600081548092919060010191905055507f10ef1972035095f38a7c4e01aaa4f5424cb9d77d479e098b52d0cd0a4af5a2aa8284836040518084815260200180602001838152602001828103825284818151815260200191508051906020019080838360005b838110156107af578082015181840152602081019050610794565b50505050905090810190601f1680156107dc5780820380516001836020036101000a031916815260200191505b5094505050505060405180910390a1505050565b81548183558181151161081d5760030281600302836000526020600020918201910161081c91906108a2565b5b505050565b828054600181600116156101000203166002900490600052602060002090601f016020900481019282601f1061086357805160ff1916838001178555610891565b82800160010185558215610891579182015b82811115610890578251825591602001919060010190610875565b5b50905061089e91906108e9565b5090565b6108e691905b808211156108e257600080820160006108c1919061090e565b60018201600090556002820160006108d9919061090e565b506003016108a8565b5090565b90565b61090b91905b808211156109075760008160009055506001016108ef565b5090565b90565b50805460018160011615610100020316600290046000825580601f106109345750610953565b601f01602090049060005260206000209081019061095291906108e9565b5b505600a165627a7a72305820bd580bd48f59fd619d0287954790c388c0b57e2ab8934343ccd81e4882ee16aa0029",
  "source": "pragma solidity ^0.4.17;\nimport './zeppelin/ownership/Ownable.sol';\n\ncontract CrytoArtFactory is Ownable {\n    uint uuidDigits = 16;\n    uint uuidModulus = 10 ** uuidDigits;\n    string defaultImageUrl = \"http://image\";\n    event NewArtCreated(uint _artUuid, string _name, uint artId);\n\n    struct Art {\n        string name;\n        uint uuid;\n        string imageUrl;\n    }\n\n    Art[] public arts;\n\n    mapping (uint=>address) public artToOwner;\n    mapping (address=>uint) public ownArtCount;\n\n    function _createArt(string _name, uint _uuid) internal {\n        uint id = arts.push(Art(_name, _uuid, defaultImageUrl));\n        artToOwner[id] = msg.sender;\n        ownArtCount[msg.sender]++;\n        NewArtCreated(_uuid, _name, id);\n    }\n\n    function _generateRandomUuid(string _name) private view returns (uint) {\n        uint rand = uint(keccak256(_name));\n        return rand % uuidModulus;\n    }\n\n    function creatNewCrptoArt(string name) public {\n        uint randUuid = _generateRandomUuid(name);\n        _createArt(name, randUuid);\n    }\n}",
  "sourcePath": "/Users/jugba/side-projects/crypto-art/contracts/CrytoArtFactory.sol",
  "compiler": {
    "name": "solc",
    "version": "0.4.18+commit.9cf6e910.Emscripten.clang"
  },
  "schemaVersion": "1.0.1",
  "updatedAt": "2018-02-08T01:16:15.059Z"
}