{
  "contractName": "CrytoArtFactory",
  "abi": [
    {
      "constant": false,
      "inputs": [
        {
          "name": "name",
          "type": "string"
        }
      ],
      "name": "creatNewCrptoArt",
      "outputs": [],
      "payable": false,
      "stateMutability": "nonpayable",
      "type": "function"
    },
    {
      "constant": true,
      "inputs": [],
      "name": "getAllArtsCount",
      "outputs": [
        {
          "name": "",
          "type": "uint256"
        }
      ],
      "payable": false,
      "stateMutability": "view",
      "type": "function"
    },
    {
      "constant": true,
      "inputs": [],
      "name": "owner",
      "outputs": [
        {
          "name": "",
          "type": "address"
        }
      ],
      "payable": false,
      "stateMutability": "view",
      "type": "function"
    },
    {
      "constant": true,
      "inputs": [
        {
          "name": "",
          "type": "uint256"
        }
      ],
      "name": "artToOwner",
      "outputs": [
        {
          "name": "",
          "type": "address"
        }
      ],
      "payable": false,
      "stateMutability": "view",
      "type": "function"
    },
    {
      "constant": true,
      "inputs": [
        {
          "name": "",
          "type": "uint256"
        }
      ],
      "name": "arts",
      "outputs": [
        {
          "name": "name",
          "type": "string"
        },
        {
          "name": "uuid",
          "type": "uint256"
        },
        {
          "name": "imageUrl",
          "type": "string"
        }
      ],
      "payable": false,
      "stateMutability": "view",
      "type": "function"
    },
    {
      "constant": false,
      "inputs": [
        {
          "name": "newOwner",
          "type": "address"
        }
      ],
      "name": "transferOwnership",
      "outputs": [],
      "payable": false,
      "stateMutability": "nonpayable",
      "type": "function"
    },
    {
      "constant": true,
      "inputs": [
        {
          "name": "",
          "type": "address"
        }
      ],
      "name": "ownArtCount",
      "outputs": [
        {
          "name": "",
          "type": "uint256"
        }
      ],
      "payable": false,
      "stateMutability": "view",
      "type": "function"
    },
    {
      "anonymous": false,
      "inputs": [
        {
          "indexed": false,
          "name": "_artUuid",
          "type": "uint256"
        },
        {
          "indexed": false,
          "name": "_name",
          "type": "string"
        },
        {
          "indexed": false,
          "name": "artId",
          "type": "uint256"
        },
        {
          "indexed": false,
          "name": "_sender",
          "type": "address"
        }
      ],
      "name": "NewArtCreated",
      "type": "event"
    }
  ],
  "bytecode": "0x60606040526010600155600154600a0a6002556040805190810160405280600c81526020017f687474703a2f2f696d61676500000000000000000000000000000000000000008152506003908051906020019061005d9291906100a3565b50336000806101000a81548173ffffffffffffffffffffffffffffffffffffffff021916908373ffffffffffffffffffffffffffffffffffffffff160217905550610148565b828054600181600116156101000203166002900490600052602060002090601f016020900481019282601f106100e457805160ff1916838001178555610112565b82800160010185558215610112579182015b828111156101115782518255916020019190600101906100f6565b5b50905061011f9190610123565b5090565b61014591905b80821115610141576000816000905550600101610129565b5090565b90565b610a86806101576000396000f300606060405260043610610083576000357c0100000000000000000000000000000000000000000000000000000000900463ffffffff168063426d0b701461008857806349a03b28146100e55780638da5cb5b1461010e578063b10cb87a14610163578063e57a104a146101c6578063f2fde38b1461030f578063f87e076714610348575b600080fd5b341561009357600080fd5b6100e3600480803590602001908201803590602001908080601f01602080910402602001604051908101604052809392919081815260200183838082843782019150505050505091905050610395565b005b34156100f057600080fd5b6100f86103b0565b6040518082815260200191505060405180910390f35b341561011957600080fd5b6101216103bd565b604051808273ffffffffffffffffffffffffffffffffffffffff1673ffffffffffffffffffffffffffffffffffffffff16815260200191505060405180910390f35b341561016e57600080fd5b61018460048080359060200190919050506103e2565b604051808273ffffffffffffffffffffffffffffffffffffffff1673ffffffffffffffffffffffffffffffffffffffff16815260200191505060405180910390f35b34156101d157600080fd5b6101e76004808035906020019091905050610415565b60405180806020018481526020018060200183810383528681815460018160011615610100020316600290048152602001915080546001816001161561010002031660029004801561027a5780601f1061024f5761010080835404028352916020019161027a565b820191906000526020600020905b81548152906001019060200180831161025d57829003601f168201915b50508381038252848181546001816001161561010002031660029004815260200191508054600181600116156101000203166002900480156102fd5780601f106102d2576101008083540402835291602001916102fd565b820191906000526020600020905b8154815290600101906020018083116102e057829003601f168201915b50509550505050505060405180910390f35b341561031a57600080fd5b610346600480803573ffffffffffffffffffffffffffffffffffffffff1690602001909190505061044c565b005b341561035357600080fd5b61037f600480803573ffffffffffffffffffffffffffffffffffffffff1690602001909190505061051c565b6040518082815260200191505060405180910390f35b60006103a082610534565b90506103ac82826105b6565b5050565b6000600480549050905090565b6000809054906101000a900473ffffffffffffffffffffffffffffffffffffffff1681565b60056020528060005260406000206000915054906101000a900473ffffffffffffffffffffffffffffffffffffffff1681565b60048181548110151561042457fe5b9060005260206000209060030201600091509050806000019080600101549080600201905083565b6000809054906101000a900473ffffffffffffffffffffffffffffffffffffffff1673ffffffffffffffffffffffffffffffffffffffff163373ffffffffffffffffffffffffffffffffffffffff16141561051957600073ffffffffffffffffffffffffffffffffffffffff168173ffffffffffffffffffffffffffffffffffffffff1614151561051857806000806101000a81548173ffffffffffffffffffffffffffffffffffffffff021916908373ffffffffffffffffffffffffffffffffffffffff1602179055505b5b50565b60066020528060005260406000206000915090505481565b600080826040518082805190602001908083835b60208310151561056d5780518252602082019150602081019050602083039250610548565b6001836020036101000a0380198251168184511680821785525050505050509050019150506040518091039020600190049050600254818115156105ad57fe5b06915050919050565b6000600480548060010182816105cc91906108f4565b9160005260206000209060030201600060606040519081016040528087815260200186815260200160038054600181600116156101000203166002900480601f01602080910402602001604051908101604052809291908181526020018280546001816001161561010002031660029004801561068a5780601f1061065f5761010080835404028352916020019161068a565b820191906000526020600020905b81548152906001019060200180831161066d57829003601f168201915b5050505050815250909190915060008201518160000190805190602001906106b3929190610926565b506020820151816001015560408201518160020190805190602001906106da929190610926565b5050509050336005600083815260200190815260200160002060006101000a81548173ffffffffffffffffffffffffffffffffffffffff021916908373ffffffffffffffffffffffffffffffffffffffff1602179055506000600660003373ffffffffffffffffffffffffffffffffffffffff1673ffffffffffffffffffffffffffffffffffffffff168152602001908152602001600020541415156107c0576000600660003373ffffffffffffffffffffffffffffffffffffffff1673ffffffffffffffffffffffffffffffffffffffff168152602001908152602001600020819055505b600660003373ffffffffffffffffffffffffffffffffffffffff1673ffffffffffffffffffffffffffffffffffffffff168152602001908152602001600020600081548092919060010191905055507f582381568b1cdf711182dbfcc771f27c20d7c3db604bc556e4923c5af710375f8284833360405180858152602001806020018481526020018373ffffffffffffffffffffffffffffffffffffffff1673ffffffffffffffffffffffffffffffffffffffff168152602001828103825285818151815260200191508051906020019080838360005b838110156108b2578082015181840152602081019050610897565b50505050905090810190601f1680156108df5780820380516001836020036101000a031916815260200191505b509550505050505060405180910390a1505050565b8154818355818115116109215760030281600302836000526020600020918201910161092091906109a6565b5b505050565b828054600181600116156101000203166002900490600052602060002090601f016020900481019282601f1061096757805160ff1916838001178555610995565b82800160010185558215610995579182015b82811115610994578251825591602001919060010190610979565b5b5090506109a291906109ed565b5090565b6109ea91905b808211156109e657600080820160006109c59190610a12565b60018201600090556002820160006109dd9190610a12565b506003016109ac565b5090565b90565b610a0f91905b80821115610a0b5760008160009055506001016109f3565b5090565b90565b50805460018160011615610100020316600290046000825580601f10610a385750610a57565b601f016020900490600052602060002090810190610a5691906109ed565b5b505600a165627a7a723058202c39b2023e7e1c8290f2da74d930ec673f0c782c4b5e6892d5c91016d9a47d3f0029",
  "source": "pragma solidity ^0.4.17;\nimport './zeppelin/ownership/Ownable.sol';\n\ncontract CrytoArtFactory is Ownable {\n    uint uuidDigits = 16;\n    uint uuidModulus = 10 ** uuidDigits;\n    string defaultImageUrl = \"http://image\";\n    event NewArtCreated(uint _artUuid, string _name, uint artId, address _sender);\n\n    struct Art {\n        string name;\n        uint uuid;\n        string imageUrl;\n    }\n\n    Art[] public arts;\n\n    mapping (uint=>address) public artToOwner;\n    mapping (address=>uint) public ownArtCount;\n\n    function _createArt(string _name, uint _uuid) internal {\n        uint id = arts.push(Art(_name, _uuid, defaultImageUrl));\n        artToOwner[id] = msg.sender;\n        if (ownArtCount[msg.sender] != 0) {\n            ownArtCount[msg.sender] = 0;\n        }\n        ownArtCount[msg.sender]++;\n        NewArtCreated(_uuid, _name, id, msg.sender);\n    }\n\n    function _generateRandomUuid(string _name) private view returns (uint) {\n        uint rand = uint(keccak256(_name));\n        return rand % uuidModulus;\n    }\n\n    function creatNewCrptoArt(string name) public {\n        uint randUuid = _generateRandomUuid(name);\n        _createArt(name, randUuid);\n    }\n\n    function _getAllCryptoArts() internal view returns (string[]) {\n        string[] memory allArts = new string[](arts.length);\n        for (uint i = 0; i < arts.length; i++) {\n         allArts[i] = arts[i].imageUrl;\n        }\n        return allArts;\n    }\n\n    function getAllArtsCount() public view returns(uint) {\n        return arts.length;\n    }\n}",
  "sourcePath": "/Users/jugba/side-projects/crypto-art/contracts/CrytoArtFactory.sol",
  "compiler": {
    "name": "solc",
    "version": "0.4.18+commit.9cf6e910.Emscripten.clang"
  },
  "schemaVersion": "1.0.1",
  "updatedAt": "2018-02-12T20:54:26.683Z"
}