{
  "contractName": "CrytoArtFactory",
  "abi": [
    {
      "constant": false,
      "inputs": [
        {
          "name": "name",
          "type": "string"
        }
      ],
      "name": "creatNewCrptoArt",
      "outputs": [],
      "payable": false,
      "stateMutability": "nonpayable",
      "type": "function"
    },
    {
      "constant": true,
      "inputs": [],
      "name": "owner",
      "outputs": [
        {
          "name": "",
          "type": "address"
        }
      ],
      "payable": false,
      "stateMutability": "view",
      "type": "function"
    },
    {
      "constant": true,
      "inputs": [
        {
          "name": "",
          "type": "uint256"
        }
      ],
      "name": "artToOwner",
      "outputs": [
        {
          "name": "",
          "type": "address"
        }
      ],
      "payable": false,
      "stateMutability": "view",
      "type": "function"
    },
    {
      "constant": true,
      "inputs": [
        {
          "name": "",
          "type": "uint256"
        }
      ],
      "name": "arts",
      "outputs": [
        {
          "name": "name",
          "type": "string"
        },
        {
          "name": "uuid",
          "type": "uint256"
        },
        {
          "name": "imageUrl",
          "type": "string"
        }
      ],
      "payable": false,
      "stateMutability": "view",
      "type": "function"
    },
    {
      "constant": false,
      "inputs": [
        {
          "name": "newOwner",
          "type": "address"
        }
      ],
      "name": "transferOwnership",
      "outputs": [],
      "payable": false,
      "stateMutability": "nonpayable",
      "type": "function"
    },
    {
      "constant": true,
      "inputs": [
        {
          "name": "",
          "type": "address"
        }
      ],
      "name": "ownArtCount",
      "outputs": [
        {
          "name": "",
          "type": "uint256"
        }
      ],
      "payable": false,
      "stateMutability": "view",
      "type": "function"
    },
    {
      "anonymous": false,
      "inputs": [
        {
          "indexed": false,
          "name": "_artUuid",
          "type": "uint256"
        },
        {
          "indexed": false,
          "name": "_name",
          "type": "string"
        },
        {
          "indexed": false,
          "name": "artId",
          "type": "uint256"
        },
        {
          "indexed": false,
          "name": "_sender",
          "type": "address"
        }
      ],
      "name": "NewArtCreated",
      "type": "event"
    }
  ],
  "bytecode": "0x60606040526010600155600154600a0a6002556040805190810160405280600c81526020017f687474703a2f2f696d61676500000000000000000000000000000000000000008152506003908051906020019061005d9291906100a3565b50336000806101000a81548173ffffffffffffffffffffffffffffffffffffffff021916908373ffffffffffffffffffffffffffffffffffffffff160217905550610148565b828054600181600116156101000203166002900490600052602060002090601f016020900481019282601f106100e457805160ff1916838001178555610112565b82800160010185558215610112579182015b828111156101115782518255916020019190600101906100f6565b5b50905061011f9190610123565b5090565b61014591905b80821115610141576000816000905550600101610129565b5090565b90565b610a45806101576000396000f300606060405260043610610078576000357c0100000000000000000000000000000000000000000000000000000000900463ffffffff168063426d0b701461007d5780638da5cb5b146100da578063b10cb87a1461012f578063e57a104a14610192578063f2fde38b146102db578063f87e076714610314575b600080fd5b341561008857600080fd5b6100d8600480803590602001908201803590602001908080601f01602080910402602001604051908101604052809392919081815260200183838082843782019150505050505091905050610361565b005b34156100e557600080fd5b6100ed61037c565b604051808273ffffffffffffffffffffffffffffffffffffffff1673ffffffffffffffffffffffffffffffffffffffff16815260200191505060405180910390f35b341561013a57600080fd5b61015060048080359060200190919050506103a1565b604051808273ffffffffffffffffffffffffffffffffffffffff1673ffffffffffffffffffffffffffffffffffffffff16815260200191505060405180910390f35b341561019d57600080fd5b6101b360048080359060200190919050506103d4565b6040518080602001848152602001806020018381038352868181546001816001161561010002031660029004815260200191508054600181600116156101000203166002900480156102465780601f1061021b57610100808354040283529160200191610246565b820191906000526020600020905b81548152906001019060200180831161022957829003601f168201915b50508381038252848181546001816001161561010002031660029004815260200191508054600181600116156101000203166002900480156102c95780601f1061029e576101008083540402835291602001916102c9565b820191906000526020600020905b8154815290600101906020018083116102ac57829003601f168201915b50509550505050505060405180910390f35b34156102e657600080fd5b610312600480803573ffffffffffffffffffffffffffffffffffffffff1690602001909190505061040b565b005b341561031f57600080fd5b61034b600480803573ffffffffffffffffffffffffffffffffffffffff169060200190919050506104db565b6040518082815260200191505060405180910390f35b600061036c826104f3565b90506103788282610575565b5050565b6000809054906101000a900473ffffffffffffffffffffffffffffffffffffffff1681565b60056020528060005260406000206000915054906101000a900473ffffffffffffffffffffffffffffffffffffffff1681565b6004818154811015156103e357fe5b9060005260206000209060030201600091509050806000019080600101549080600201905083565b6000809054906101000a900473ffffffffffffffffffffffffffffffffffffffff1673ffffffffffffffffffffffffffffffffffffffff163373ffffffffffffffffffffffffffffffffffffffff1614156104d857600073ffffffffffffffffffffffffffffffffffffffff168173ffffffffffffffffffffffffffffffffffffffff161415156104d757806000806101000a81548173ffffffffffffffffffffffffffffffffffffffff021916908373ffffffffffffffffffffffffffffffffffffffff1602179055505b5b50565b60066020528060005260406000206000915090505481565b600080826040518082805190602001908083835b60208310151561052c5780518252602082019150602081019050602083039250610507565b6001836020036101000a03801982511681845116808217855250505050505090500191505060405180910390206001900490506002548181151561056c57fe5b06915050919050565b60006004805480600101828161058b91906108b3565b9160005260206000209060030201600060606040519081016040528087815260200186815260200160038054600181600116156101000203166002900480601f0160208091040260200160405190810160405280929190818152602001828054600181600116156101000203166002900480156106495780601f1061061e57610100808354040283529160200191610649565b820191906000526020600020905b81548152906001019060200180831161062c57829003601f168201915b5050505050815250909190915060008201518160000190805190602001906106729291906108e5565b506020820151816001015560408201518160020190805190602001906106999291906108e5565b5050509050336005600083815260200190815260200160002060006101000a81548173ffffffffffffffffffffffffffffffffffffffff021916908373ffffffffffffffffffffffffffffffffffffffff1602179055506000600660003373ffffffffffffffffffffffffffffffffffffffff1673ffffffffffffffffffffffffffffffffffffffff1681526020019081526020016000205414151561077f576000600660003373ffffffffffffffffffffffffffffffffffffffff1673ffffffffffffffffffffffffffffffffffffffff168152602001908152602001600020819055505b600660003373ffffffffffffffffffffffffffffffffffffffff1673ffffffffffffffffffffffffffffffffffffffff168152602001908152602001600020600081548092919060010191905055507f582381568b1cdf711182dbfcc771f27c20d7c3db604bc556e4923c5af710375f8284833360405180858152602001806020018481526020018373ffffffffffffffffffffffffffffffffffffffff1673ffffffffffffffffffffffffffffffffffffffff168152602001828103825285818151815260200191508051906020019080838360005b83811015610871578082015181840152602081019050610856565b50505050905090810190601f16801561089e5780820380516001836020036101000a031916815260200191505b509550505050505060405180910390a1505050565b8154818355818115116108e0576003028160030283600052602060002091820191016108df9190610965565b5b505050565b828054600181600116156101000203166002900490600052602060002090601f016020900481019282601f1061092657805160ff1916838001178555610954565b82800160010185558215610954579182015b82811115610953578251825591602001919060010190610938565b5b50905061096191906109ac565b5090565b6109a991905b808211156109a5576000808201600061098491906109d1565b600182016000905560028201600061099c91906109d1565b5060030161096b565b5090565b90565b6109ce91905b808211156109ca5760008160009055506001016109b2565b5090565b90565b50805460018160011615610100020316600290046000825580601f106109f75750610a16565b601f016020900490600052602060002090810190610a1591906109ac565b5b505600a165627a7a723058200b0798b5d7d5afc7f6193cd904f521acececf44855f5687809e9c2bd3cdb79bf0029",
  "source": "pragma solidity ^0.4.17;\nimport './zeppelin/ownership/Ownable.sol';\n\ncontract CrytoArtFactory is Ownable {\n    uint uuidDigits = 16;\n    uint uuidModulus = 10 ** uuidDigits;\n    string defaultImageUrl = \"http://image\";\n    event NewArtCreated(uint _artUuid, string _name, uint artId, address _sender);\n\n    struct Art {\n        string name;\n        uint uuid;\n        string imageUrl;\n    }\n\n    Art[] public arts;\n\n    mapping (uint=>address) public artToOwner;\n    mapping (address=>uint) public ownArtCount;\n\n    function _createArt(string _name, uint _uuid) internal {\n        uint id = arts.push(Art(_name, _uuid, defaultImageUrl));\n        artToOwner[id] = msg.sender;\n        if (ownArtCount[msg.sender] != 0) {\n            ownArtCount[msg.sender] = 0;\n        }\n        ownArtCount[msg.sender]++;\n        NewArtCreated(_uuid, _name, id, msg.sender);\n    }\n\n    function _generateRandomUuid(string _name) private view returns (uint) {\n        uint rand = uint(keccak256(_name));\n        return rand % uuidModulus;\n    }\n\n    function creatNewCrptoArt(string name) public {\n        uint randUuid = _generateRandomUuid(name);\n        _createArt(name, randUuid);\n    }\n\n    function getAllCryptoArts() internal view returns (string[]) {\n        string[] memory allArts = new string[](arts.length);\n        for (uint i = 0; i < arts.length; i++) {\n         allArts[i] = arts[i].imageUrl;\n        }\n        return allArts;\n    }\n}",
  "sourcePath": "/Users/jugba/side-projects/crypto-art/contracts/CrytoArtFactory.sol",
  "compiler": {
    "name": "solc",
    "version": "0.4.18+commit.9cf6e910.Emscripten.clang"
  },
  "schemaVersion": "1.0.1",
  "updatedAt": "2018-02-12T20:21:08.657Z"
}